:020000040800F2
:10000000A07D0020F9020008613B000817250008C8
:100010002D3B000873060008FD43000800000000A7
:10002000000000000000000000000000390200088D
:10003000590800080000000095020008A9410008C6
:100040001303000813030008130300081303000838
:100050001303000813030008130300081303000828
:1000600013030008130300081303000879060008AF
:100070001303000813030008130300081303000808
:10008000130300088906000813030008000000009D
:100090000000000000000000000000001303000842
:1000A0008D4200081303000813030008130300081F
:1000B0009D42000813030008130300088925000867
:1000C00013030008130300081303000813030008B8
:1000D00013030008130300081303000800000000C6
:1000E00013030008130300081303000800000000B6
:1000F00000000000000000000000000013030008E2
:100100000000000013030008130300081303000895
:1001100000000000000000000000000000000000DF
:100120001303000813030008130300081303000857
:1001300013030008000000000000000000000000A1
:100140000000000000000000000000001303000891
:100150001303000813030008130300081303000827
:100160001303000813030008000000000000000053
:10017000000000000000000000000000000000007F
:100180000000000013030008000000000000000051
:100190001303000800F002F800F03EF80AA090E80F
:1001A000000C82448344AAF10107DA4501D100F032
:1001B00033F8AFF2090EBAE80F0013F0010F18BFC1
:1001C000FB1A43F001031847C86E0000E86E0000F8
:1001D000103A24BF78C878C1FAD8520724BF30C873
:1001E00030C144BF04680C60704700000023002445
:1001F00000250026103A28BF78C1FBD8520728BF37
:1002000030C148BF0B6070471FB506F025FF00F0F6
:10021000A3F91FBD10B510BD00F0F6F91146FFF7A8
:10022000F3FF04F0A7FB00F014FA03B4FFF7F2FFAA
:1002300003BC00F017FA00002C4B19680868B0E8FE
:10024000F04F80F30988BFF36F8F4FF0000080F309
:10025000118870470000000008480068006880F3BB
:1002600008884FF0000080F3148862B661B6BFF3CF
:100270004F8FBFF36F8F00DF00BF00BF08ED00E0BE
:10028000DFF80C00016841F470010160704700BFA5
:1002900088ED00E0EFF30980BFF36F8F134B1A680E
:1002A0001EF0100F08BF20ED108A20E9F04F1060FB
:1002B00009B44FF0500080F31188BFF34F8FBFF3A4
:1002C0006F8F05F071FC4FF0000080F3118809BCBE
:1002D00019680868B0E8F04F1EF0100F08BFB0ECC6
:1002E000108A80F30988BFF36F8F704710000020D9
:1002F000EFF3058070470000094880470948004730
:10030000FEE7FEE7FEE7FEE7FEE7FEE7FEE7FEE7C5
:10031000FEE7FEE704480549054A064B7047000022
:100320007942000895010008A0770020A07D0020F8
:10033000A0790020A079002053EA020C00F0698027
:100340002DE9F04B4FF00006002B1FBFB3FA83F5E9
:1003500003FA05F424FA05F65E4012BF1643B2FA1A
:1003600082F502FA05F4C5F120051EBF22FA05FC4C
:1003700044EA0C04203556EA044C4FEA144418BFF2
:10038000641C4FF000084FF00009904271EB030C21
:1003900039D3002919BFB1FA81F701FA07F6B0FA8B
:1003A00080F700FA07F6C7F120071EBF20FA07FC06
:1003B00046EA0C062037B6FBF4FCA7EB0507103F16
:1003C00007F01F0BCBF120060CFA0BFB2CFA06F6FC
:1003D00044BFB3460026202FA4BF5E464FF0000B5B
:1003E0005BEA060C08BF4FF0010B19EB0B09ABFBE6
:1003F000027C48EB0608C01B06FB02CC0BFB03CCBF
:1004000071EB0C01C1E70B46024641464846BDE888
:10041000F08B13B54FF000004FF00001AFF30080F8
:10042000BDE81C407047032A40F2308010F0030CF6
:1004300000F0158011F8013BBCF1020F624498BF37
:1004400011F801CB00F8013B38BF11F8013BA2F1D4
:10045000040298BF00F801CB38BF00F8013B11F04F
:10046000030300F09680083AC0F0088051F8043B7E
:10047000083A51F804CBA0E80810F5E7121D5CBF5C
:1004800051F8043B40F8043BAFF30080D20724BF8F
:1004900011F8013B11F801CB48BF11F8012B24BF23
:1004A00000F8013B00F801CB48BF00F8012B704772
:1004B00002F0FF0343EA032242EA024200F002B8DC
:1004C0004FF000020429C0F0128010F0030C00F07D
:1004D0001B80CCF1040CBCF1020F18BF00F8012BFB
:1004E000A8BF20F8022BA1EB0C0100F00DB85FEAC9
:1004F000C17C24BF00F8012B00F8012B48BF00F895
:10050000012B70474FF0000200B513469446964603
:10051000203922BFA0E80C50A0E80C50B1F1200116
:10052000BFF4F7AF090728BFA0E80C5048BF0CC0C4
:100530005DF804EB890028BF40F8042B08BF704722
:1005400048BF20F8022B11F0804F18BF00F8012B94
:10055000704770477047704770B5064C7C44064D35
:100560007D4403E0206820448047241DAC42F9D13B
:1005700070BD0000506B0000546B000010B500F01F
:100580003BF8006810BD10B5044600F035F8046073
:1005900010BD10B5203AC0F00B80B1E81850203AD9
:1005A000A0E81850B1E81850A0E81850BFF4F5AF13
:1005B0005FEA027C24BFB1E81850A0E8185044BF9D
:1005C00018C918C0BDE810405FEA827C24BF51F80A
:1005D000043B40F8043B08BF7047D20728BF31F8FE
:1005E000023B48BF11F8012B28BF20F8023B48BF4F
:1005F00000F8012B70470000004870473C7700204E
:10060000004870473C7700207546FFF7F9FFAE467B
:1006100005006946534620F00700854618B020B50E
:10062000FFF778FEBDE820404FF000064FF00007CE
:100630004FF000084FF0000B21F00701AC46ACE88A
:10064000C009ACE8C009ACE8C009ACE8C0098D46F7
:10065000704710B50446AFF300802046BDE8104057
:10066000FFF7E3BD01491820ABBEFEE726000200FC
:10067000704700BFFEE7000010B5024800F01EF909
:1006800010BD00006401002010B5024800F016F90A
:1006900010BD0000C401002001460878103818235E
:1006A000B0FBF3F20848805CC865032A05D90868E6
:1006B0006FF30900001D886503E008686FF3090007
:1006C0008865886D70470000627000080146002050
:1006D0008A6A8B69CBB932B1012A0DD0022A03D0C4
:1006E000032A10D10EE000BFCB6A03F08073B3F190
:1006F000807F00D1012007E0CB6AB3F1C07F00D139
:10070000012001E000E000BF34E08B69B3F5005F39
:100710001AD132B1012A07D0022A03D0032A11D1FB
:100720000AE000BF01200EE0CB6A03F08073B3F152
:10073000807F00D1012006E0CB6AB3F1C07F00D1F9
:10074000012000E000BF15E032B1012A05D0022AE5
:1007500004D0032A0CD103E000BF00BF012008E051
:10076000CB6A03F08073B3F1807F00D1012000E0F9
:1007700000BF00BF704730B50468246824F48024AB
:1007800005682C60046863608468402C04D10468A8
:10079000A2600468E16003E00468A1600468E260AC
:1007A00030BD000010B52DED028B82B004460E481E
:1007B0004068019020680199081A00EE100AF8EECE
:1007C000400A0A4890ED000AB8EE400A80EE801A0E
:1007D000B0EE418A0198206003F012FEB0EE480AA4
:1007E00002B0BDEC028B10BD001000E098000020AC
:1007F0001249096841F08071104A11600021104AC5
:1008000051601146096841F0010111600D494143F1
:100810000D4A1160114609684FF47A72B1FBF2F18A
:100820000A4A116008490968064AB1FBF2F1084A10
:1008300011600021074A116070470000FCED00E0E4
:10084000001000E040420F00980000209C000020B3
:10085000A0000020A4000020704772B600BFFEE791
:1008600010B502460B46012108E0481E012404FA97
:1008700000F0104008B9C8B210BD491C9942F4DD1F
:100880000020F9E7014691F83500022803D08020C6
:10089000486501207047052081F835000868006828
:1008A00020F001000A6810600020F3E70146486D5F
:1008B0007047014691F8350070470000F8B50446CE
:1008C000002000908C4800684FF41651B0FBF1F7FF
:1008D000A56D2E6894F85C1008208840304098B1CF
:1008E0002068006800F0040070B12068006820F003
:1008F00004002168086094F85C1008208840A86013
:10090000606D40F00100606594F85C100120884043
:10091000304068B12068406900F0800040B194F830
:100920005C1001208840A860606D40F002006065A6
:1009300094F85C1004208840304068B1206800685A
:1009400000F0020040B194F85C1004208840A860D8
:10095000606D40F00400606594F85C1010208840E1
:10096000304078B32068006800F0080050B394F875
:100970005C1010208840A8602068006800F4802087
:1009800080B12068006800F4002028B9206CC8B14C
:100990002046216C884715E0A06C98B12046A16CD8
:1009A00088470FE02068006800F4807028B920684C
:1009B000006820F0080021680860206C10B1204613
:1009C000216C884794F85C10202088403040002833
:1009D00065D02068006800F0100000285FD094F80F
:1009E0005C1020208840A86094F83500052828D1A4
:1009F0002068006820F016002168086020684069BF
:100A000020F0800021684861206C08B9A06C28B1F2
:100A10002068006820F008002168086094F85C10E5
:100A20003F208840A860012084F8350000BF0020E6
:100A300084F8340000BF206D10B12046216D884736
:100A4000F8BD2068006800F4802080B1206800684C
:100A500000F4002028B9606C10B12046616C884712
:100A60001DE0E06BD8B12046E16B884717E02068B5
:100A7000006800F4807068B92068006820F01000F9
:100A800021680860012084F8350000BF002084F848
:100A9000340000BFE06B10B12046E16B8847606D09
:100AA00038B3606D00F00100F0B1052084F8350026
:100AB0002068006820F001002168086000BF0098ED
:100AC000401C0090B84200D905E02068006800F0A2
:100AD00001000028F3D100BF012084F8350000BFD9
:100AE000002084F8340000BFE06C10B12046E16CB7
:100AF000884700BFA4E700000C0000202DE9F0416A
:100B00000446002500F09EF9074614B90120BDE80F
:100B1000F081606A00B100BF022084F8350000BF98
:100B2000002084F8340000BF2068006820F0010035
:100B3000216808600AE000F085F9C01B052805D986
:100B400020206065032084F83500E0E72068006815
:100B500000F001000028EED120680568214805401A
:100B6000D4E901010843E168084321690843616948
:100B70000843A1690843E1690843216A0843054322
:100B8000606A042803D1D4E90B01084305432068B7
:100B900005602068456925F00705606A0543606ABD
:100BA00004280DD1A06A0543E06A48B12046FFF74A
:100BB0008DFD28B140206065012084F83500A6E74E
:100BC000206845612046FFF767FD064694F85C10F3
:100BD0003F208840B06000206065012084F8350027
:100BE000002094E73F8010F02DE9F04704460D46C1
:100BF00016461F464FF00008D4F8589000BF94F8EE
:100C00003400012802D10220BDE8F087012084F8D9
:100C1000340000BF94F83500012825D1022084F863
:100C20003500002060653B46324629462046FFF7E6
:100C3000A2FD94F85C103F208840C9F808002068A5
:100C4000006840F0160021680860206C28B1206818
:100C5000006840F00800216808602068006840F0E3
:100C600001002168086006E000BF002084F834001D
:100C700000BF4FF002084046C6E70000F8B5024644
:100C80000B460025002400200021C7E0012606FABB
:100C900001F51E6806EA0504AC4274D11E7906F01F
:100CA0000306012E04D01E7906F00306022E13D18E
:100CB00090684F000326BE40B0434F00DE68BE4040
:100CC00030439060506801268E40B0431E79C6F3D1
:100CD00000168E40304350601E7906F00306032E46
:100CE00009D0D0684F000326BE40B0434F009E6835
:100CF000BE403043D0601E7906F00306022E13D1A9
:100D0000CF0802F1200656F827004E07F70E0F26EF
:100D1000BE40B0434F07FF0E1E69BE403043CF08B0
:100D200002F1200646F8270010684F000326BE4057
:100D3000B0431E7906F003064F00BE4030431060FA
:100D40005E6806F44036002E67D000BF002600968D
:100D5000344E366846F48046324F3E603E46366832
:100D600006F48046009600BF00BF2F4E8F0856F84D
:100D700027008E07370F0F26BE40B0432B4EB242DE
:100D800002D1002615E048E0294EB24201D10126E9
:100D90000FE0284EB24201D102260AE0264EB242AE
:100DA00001D1032605E0254EB24201D1042600E020
:100DB00007268F073F0FBE4030431B4E8F0846F873
:100DC00027001F4E3068A0435E6806F4801606B107
:100DD00020431B4E3060361D3068A0435E6806F429
:100DE000001606B12043164E361D3060144E361FD5
:100DF0003068A0435E6806F4003606B12043104E0A
:100E0000361F3060361F3068A0435E6806F48036B7
:100E100006B120430A4E083E3060491C1029FFF4F9
:100E200035AFF8BD443802400838014000000240A8
:100E30000004024000080240000C02400010024082
:100E4000083C014001480068704700000000002095
:100E5000704770472DE9F04705464FF000092868B4
:100E60004668D5F82CA095F83E7095F83D80102F77
:100E700001D0402F75D12868D0F8189028684469AF
:100E800004F0010060B9BAF52A0F02D0BAF12A4F76
:100E900001D1012000E00020012801D1BDE8F08748
:100EA00004F0010048B1C6F3402030B1284601F0FB
:100EB00073FB284602F03FF9B7E0C4F3C00030B13D
:100EC000C6F3402018B1284601F0ECFFADE0C4F3B2
:100ED000400030B1C6F3402018B1284601F0F7FFBA
:100EE000A3E0C9F3800040B32868406800F40060C4
:100EF000B0F5006FE0D0C4F3C01048B1C6F3802055
:100F000030B1C4F3800018B9284601F05FFF8CE0CF
:100F1000C4F380000028CFD0C6F340200028CBD0F7
:100F2000B8F1210F03D1284601F000FF7DE0402FEA
:100F30007BD1284602F04EF977E02868406800F43B
:100F40000060B0F5006F70D0C4F3801050B1C6F3EC
:100F5000802038B1C4F3800020B9284601F003FE98
:100F600063E00BE0C4F3800000285ED0C6F34020AD
:100F700000285AD0284601F05EFD56E0286C10B1DA
:100F80002868446904E02868D0F818902868446903
:100F9000C4F3400060B1C6F3402048B1286C10B1E2
:100FA0002868D0F818904946284602F047FA3CE0F5
:100FB000C4F3001030B1C6F3402018B1284602F047
:100FC00075FA32E0B8F1210F02D0B8F1290F16D12D
:100FD000C4F3C01048B1C6F3802030B1C4F3800020
:100FE00018B9284602F007FA1FE0C4F38000E0B108
:100FF000C6F34020C8B1284602F0F0F915E0C4F36A
:10100000801048B1C6F3802030B1C4F3800018B915
:10101000284602F0C0F908E0C4F3800028B1C6F306
:10102000402010B1284602F0A9F900BF36E770470A
:1010300070B504460CB9012070BD94F83D0028B984
:10104000002084F83C00204600F0DCFA242084F8DC
:101050003D002068006820F00100216808602068D9
:10106000006840F40040216808602068006820F4AF
:1010700000402168086000F04DFD05465C4960684D
:10108000884206D85B48854201D2012007E0002053
:1010900005E05948854201D2012000E000200128E6
:1010A00000D1C9E75548B5FBF0F62068406820F04C
:1010B0003F003043216848604D496068884201D84C
:1010C000701C07E04FF4967070434FF47A71B0FBD8
:1010D000F1F0401C2168096A21F03F0108432168B2
:1010E000086243496068884214D8681E61684900F4
:1010F000B0FBF1F0401CC0F30B00042801D2042027
:101100003DE0681E61684900B0FBF1F0401CC0F38F
:101110000B0034E0A06838B9681E616801EB41013A
:10112000B0FBF1F0401C0AE0681E616801EBC102EF
:1011300002EB0111B0FBF1F0401C40F48040C0F321
:101140000B0008B901201AE0A06848B9681E616860
:1011500001EB4101B0FBF1F0401CC0F30B000CE0CF
:10116000681E616801EBC10202EB0111B0FBF1F0F6
:10117000401CC0F30B0040F4804040F40040216864
:10118000C9694CF6FF72914308432168C861D4E9EC
:10119000070108432168096821F0C001084321685C
:1011A0000860D4E9031008432168896848F2FF32D7
:1011B0009143084321688860D4E905010843216808
:1011C000C96821F0FF0108432168C86020680068F1
:1011D00040F001002168086000202064202084F88D
:1011E0003D000020206384F83E0000BF24E700009B
:1011F000A086010080841E0000093D0040420F00CF
:1012000070477047704700002DE9F843044689464F
:1012100016461F46DDF82080FFF714FE054694F8B9
:101220003D0020287ED119230122514920460095F6
:1012300002F035FA10B10220BDE8F88300BF94F83F
:101240003C00012801D10220F6E7012084F83C008F
:1012500000BF2068006800F0010028B9206800681D
:1012600040F00100216808602068006820F40060F8
:1012700021680860212084F83D00102084F83E0099
:101280000020206466626785608D20853948E062B1
:101290002B4642464946204601F0E8FC08B10120B1
:1012A000CAE700BF002000902068406900902068D5
:1012B0008069009000BF00BF44E02A4641462046B6
:1012C00002F0F2FA50B1206C042805D120680068C1
:1012D00040F40070216808600120ADE7606A007882
:1012E00021680861606A401C6062608D401E6085F4
:1012F000208D401E208520684069C0F3800070B1B9
:10130000208D60B1606A007821680861606A401CC5
:101310006062608D401E6085208D401E20852A46BB
:10132000414600E022E0204602F086F950B1206CF0
:10133000042805D12068006840F400702168086026
:10134000012079E7208D0028B7D12068006840F49B
:10135000007021680860202084F83D00002084F897
:101360003E0000BF84F83C0000BF65E7022063E751
:10137000020010000000FFFF7047000038B504466F
:101380001248844220D1002000906946104800682D
:1013900004F06AFF0F4801780F4802F0F7FE0F488B
:1013A000FFF700FAF7EE000A80EE801A0C4880ED95
:1013B000001A009838B14FF080500A490860BFF316
:1013C0004F8FBFF36F8F00BF38BD000010010020AA
:1013D000F800002004010020E000002008010020A7
:1013E0000C01002004ED00E02DE9FE4F04460E46FE
:1013F00017469846DDE90C9A00200290FFF722FD7F
:10140000834694F83D00202879D17A480068192154
:10141000B0FBF1F04FF47A71B0FBF1F000EBC001DA
:1014200001EB0010029000BF0298401E029002984B
:1014300070B900202063202084F83D00002084F84B
:101440003E00206C40F0200020640220BDE8FE8FAA
:1014500020688069C0F340000028E5D100BF94F8FF
:101460003C00012801D10220F0E7012084F83C0073
:1014700000BF2068006800F0010028B920680068FB
:1014800040F00100216808602068006820F40060D6
:1014900021680860212084F83D00402084F83E0047
:1014A00000202064C4F82490A4F82AA0608D208530
:1014B0005148E0626664A764C4F84C80002020654F
:1014C000208D00286DD0606BD0B14C48616BC86333
:1014D0004B48616BC8640020616B0864616B4864B1
:1014E000616B8864616B0865238DD4F800C00CF1D2
:1014F0001002616A606BFFF777FB054611E076E04A
:10150000202084F83D00002084F83E00206C40F04C
:101510008000206400BF002084F83C0000BF012050
:1015200094E7EDBB232043463A463146CDE9000B14
:10153000204601F0B3FEB8B1606BFFF7A3F9054692
:101540000020616BC8632068006820F48060216817
:1015500008600020208560852068006820F0010078
:1015600021680860012071E700BF00200190206819
:101570004069019020688069019000BF00BF00BFF2
:10158000002084F83C0000BF2068406840F4807070
:10159000216848602068406840F40060216801E0EC
:1015A00003E013E04860002050E7202084F83D006D
:1015B000002084F83E00206C40F01000206400BF42
:1015C000002084F83C0000BF01203FE7202084F881
:1015D0003D00002084F83E00206C40F04000206474
:1015E00000BF002084F83C0000BF01202EE702204D
:1015F0002CE700000C0000200000FFFFFD26000883
:10160000AD26000810B586B00446142101A8FEF7E7
:1016100079FF3F492068884278D100BF00200090C0
:101620003C48006840F002003A49086008460068FB
:1016300000F00200009000BF00BFC0200190122007
:10164000029001200390032004900420059001A93A
:101650003148FFF713FB00BF002000902D481030E9
:10166000006840F400102B491031086008460068FB
:1016700000F40010009000BF00BF2848284908600F
:1016800040054860002126488160C1604FF48061B8
:101690000161002141618161C1614FF4403101620A
:1016A00000214162FFF72AFA08B1FFF7D6F800BF20
:1016B0001B48A063846300BF184890301949086034
:1016C0004FF0007048604021164881600021C160E1
:1016D0004FF480610161002141618161C1614FF47A
:1016E0004031016200214162FFF708FA08B1FFF7BB
:1016F000B4F800BF0B486063846300BF002205217B
:101700001F2000F0CBF81F2000F0B4F806B010BD89
:101710000054004030380240000402401060024093
:1017200064010020C401002070477047034800682E
:101730000349097808440149086070470000002007
:101740000800002010B50D48006840F400700B49F7
:1017500008600846006840F4806008600846006839
:1017600040F480700860032000F0D6F80F2000F0ED
:1017700007F800F055F8002010BD0000003C0240C2
:10178000F0B587B004460026002700BF0020009077
:101790001E48006840F480301C4908600846006814
:1017A00000F48030009000BF00BF01A902A800F043
:1017B00089F900F0BFF906461548B6FBF0F0471E60
:1017C00014481549086040F2E7311348C16047608A
:1017D000002101618160816100F0B2FC054695B98C
:1017E0000D4800F003FD05466DB9182000F042F8E1
:1017F000102C07D200222146182000F04FF807488D
:10180000046000E00125284607B0F0BD44380240DE
:1018100040420F00004001406C0200200400002004
:1018200008B500BF002000901148006840F48040D7
:101830000F4908600846006800F48040009000BF2F
:1018400000BF00BF00200090081F006840F08050DB
:10185000091F08600846006800F08050009000BF33
:1018600000BF00220F21901E00F018F808BD0000F4
:10187000443802400146084600280DDB00BF00BF87
:1018800000F01F0301229A4043099B0003F1E0236B
:10189000C3F8002100BF00BF00BF70472DE9F05F13
:1018A00080460D461646002702F0EEFF07463946F1
:1018B0002A46334601F00700C0F1070ABAF1040FC7
:1018C00002D94FF0040A01E0C0F1070AD14600F145
:1018D000040ABAF1070F02D24FF0000A01E0A0F1AA
:1018E000030AD4464FF0010A0AFA09FAAAF1010ADA
:1018F0000AEA020A0AFA0CFA4FF0010B0BFA0CFB87
:10190000ABF1010B0BEA030B4AEA0B0421464046FC
:1019100002F0C2FFBDE8F09F00BF00F00702064BD7
:1019200019684FF6FF031940044B0B4343EA0221A9
:10193000014B196000BF70470CED00E00000FA0594
:1019400070B504460D460CB9012070BD58480068BA
:1019500000F00700A84209D255490D7008460068FA
:1019600000F00700A84201D00120EEE7207800F047
:10197000020002281DD1207800F00400042805D1BF
:101980004C48006840F4E0504A490860207800F074
:101990000800082805D14748006840F460404549E0
:1019A00008604448006820F0F000A16808434149FD
:1019B0000860207800F00100A8B36068012807D112
:1019C0003C4808380068C0F34040B8B90120BCE783
:1019D0006068022802D06068032807D135480838BB
:1019E0000068C0F3406048B90120AEE731480838CC
:1019F0000068C0F3400008B90120A6E72D48006840
:101A000020F00300616808432A490860FFF71AFACA
:101A1000064609E0FFF716FA801B41F2883188423A
:101A200002D9032091E707E02248006800F00C008B
:101A30006168B0EB810FEDD11D48006800F0070030
:101A4000A84209D91A490D700846006800F007003D
:101A5000A84201D0012078E7207800F00400042893
:101A600007D11448006820F4E050E16808431149A8
:101A70000860207800F00800082808D10D480068A8
:101A800020F46040216940EAC1000A49086000F082
:101A900061F808490968C1F30311074A515CC8405D
:101AA0000649086006480068FFF76AFE00204CE718
:101AB000003C0240083802406A7000080C00002018
:101AC000040000200F2202600D4A126802F0030297
:101AD00042600B4A126802F0F0028260084A126803
:101AE00002F4E052C260064A126802F46042D20870
:101AF0000261044A126802F007020A60704700009F
:101B000008380240003C024001480068704700006D
:101B10000C00002000B5FFF7F7FF04490968C1F386
:101B20008221034A515CC84000BD000008380240D1
:101B30007A70000800B5FFF7E7FF04490968C1F3B0
:101B40004231034A515CC84000BD000008380240E1
:101B50007A7000082DE9F047002400250026A146F0
:101B60002548006800F00C0020B1042805D00828A2
:101B70003AD105E0DFF8849039E0DFF8849036E070
:101B80001D48001F006800F03F041B48001F00684C
:101B900000F4800078B11A481749091F0968C1F399
:101BA0008811A0FB01700146224600233846FEF74B
:101BB000C3FB05460EE011480F49091F0968C1F330
:101BC0008811A0FB01700146224600233846FEF72B
:101BD000B3FB05460848001F0068C0F30140401CE5
:101BE0004600B5FBF6F902E0DFF8109000BF00BF39
:101BF0004846BDE8F0870000083802400024F400A1
:101C000040787D01F8B504460CB90120F8BD207874
:101C100000F00100002874D0F948006800F00C00C2
:101C200004280DD0F648006800F00C00082813D1F5
:101C3000F348001F006800F48000B0F5800F0BD15E
:101C4000EF4808380068C0F34040002859D0606869
:101C5000002856D10120D9E700BF6068B0F5803F69
:101C600008D1E7480838006840F48030E449083972
:101C700008601EE06068B0F5A02F0DD1E04808387C
:101C8000006840F48020DE49083908600846006892
:101C900040F4803008600CE0D9480838006820F42F
:101CA0008030D749083908600846006820F4802051
:101CB000086000BF606890B1FFF7C4F8054606E011
:101CC000FFF7C0F8401B642801D903209EE7CC48E9
:101CD00008380068C0F340400028F1D011E0FFF759
:101CE000B1F8054606E0FFF7ADF8401B642801D9BE
:101CF00003208BE7C24808380068C0F34040002842
:101D0000F1D1207800F0020002285FD1BC480068C1
:101D100000F00C0058B1BA48006800F00C00082828
:101D20001CD1B748001F006800F48000B0B9B44867
:101D300008380068C0F3400020B1E068012801D0F5
:101D4000012063E7AE480838006820F0F8002169F8
:101D500040EAC100AA490839086037E0E06800B3EA
:101D60000120A8490860FFF76DF8054606E0FFF777
:101D700069F8401B022801D9032047E7A04808382A
:101D80000068C0F340000028F1D09D480838006882
:101D900020F0F800216940EAC1009949083908603B
:101DA00014E0002097490860FFF74CF8054606E06C
:101DB000FFF748F8401B022801D9032026E7904886
:101DC00008380068C0F340000028F1D1207800F006
:101DD000080008282CD16069A8B101208A49086050
:101DE000FFF730F8054606E0FFF72CF8401B022805
:101DF00001D903200AE782486C300068C0F3400034
:101E00000028F1D014E000207F490860FFF71AF89D
:101E1000054606E0FFF716F8401B022801D903200B
:101E2000F4E677486C300068C0F340000028F1D138
:101E3000207800F00400042870D100277048383062
:101E4000006800F0805090B900BF002000906C48FE
:101E50003830006840F080506949383108600846E1
:101E6000006800F08050009000BF00BF0127674865
:101E7000006800F48070B0B96448006840F4807075
:101E800062490860FEF7DEFF054606E0FEF7DAFF6E
:101E9000401B022801D90320B8E65C48006800F422
:101EA00080700028F2D000BFA068012808D15448F3
:101EB0006830006840F001005149683108601DE059
:101EC000A06805280DD14E486830006840F0040035
:101ED0004B49683108600846006840F0010008601E
:101EE0000CE047486830006820F001004449683140
:101EF00008600846006820F00400086000BFA06881
:101F0000A8B1FEF79FFF054609E0FEF79BFF401BC7
:101F100041F28831884202D9032077E626E038482A
:101F200068300068C0F340000028EED013E0FEF7F0
:101F300089FF054608E0FEF785FF401B41F2883126
:101F4000884201D9032061E62D4868300068C0F35B
:101F500040000028EFD1012F07D129483830006810
:101F600020F0805026493831086000BFA069002861
:101F700045D02348006800F00C0008285DD0A06917
:101F8000022845D100201F490866FEF75BFF054681
:101F900006E0FEF757FF401B022801D9032035E673
:101FA000174808380068C0F340600028F1D1D4E930
:101FB00007010843616A40EA81110122A06AC2EB6D
:101FC000500041EA00412C20005D41EA00600C49CC
:101FD000091F086001200B490866FEF733FF05461C
:101FE00006E0FEF72FFF401B022801D903200DE673
:101FF000034808380068C0F340600028F1D049E089
:102000000838024000004742800E474200700040FE
:10201000002021490866FEF715FF054606E0FEF799
:1020200011FF401B022801D90320EFE51B4800687F
:10203000C0F340600028F2D12CE0A069012800D153
:10204000E4E51648001D0668A069012820D006F4C2
:102050008001E06981421BD106F03F01206A814284
:1020600016D147F6C0703040616AB0EB811F0FD1C6
:1020700006F440310122A06AC2EB5000B1EB004FE0
:1020800006D106F070612C20005DB1EB006F01D02D
:102090000120BBE50020B9E50000474200380240BE
:1020A0007047704730B502460B4600BF92F83C00BF
:1020B000012801D1022030BD012082F83C0000BF80
:1020C000022082F83D00106844681068816824F09E
:1020D00070041868044310684460144D1068A842E6
:1020E00013D01068B0F1804F0FD0114D1068A84286
:1020F0000BD0104D1068A84207D00F4D1068A842B1
:1021000003D00E4D1068A84205D121F08001586817
:10211000014310688160012082F83D0000BF00206B
:1021200082F83C0000BF00BFC5E70000000001408E
:102130000004004000080040000C00400040014046
:1021400010B504460CB9012010BD94F83D0028B923
:10215000002084F83C00204600F026F8022084F895
:102160003D00211D206802F0A1F8012084F84600FE
:1021700000BF84F83E0001213F2001554020015559
:102180004120015500BF00BF012084F842004320D8
:102190000155442001554520015500BF012084F818
:1021A0003D000020D0E7000038B504462068B0F1BB
:1021B000804F17D100BF002000900B48006840F00E
:1021C0000100094908600846006800F0010000901D
:1021D00000BF00BF002205211C20FFF75FFB1C2071
:1021E000FFF748FB38BD000040380240014691F837
:1021F0003D00012801D001207047022081F83D00F8
:102200000868C06840F001000B68D860164B086889
:10221000984213D00868B0F1804F0FD0134B086874
:1022200098420BD0124B0868984207D0114B0868AF
:10223000984203D0104B086898420CD10868806817
:1022400000F00702062A0CD00868006840F0010080
:102250000B68186005E00868006840F001000B6832
:1022600018600020C8E700000000014000040040A2
:1022700000080040000C0040004001402DE9F04102
:1022800004460D46002700BF94F83C00012802D107
:102290000220BDE8F081012084F83C0000BF02204C
:1022A00084F83D002068866826F0770626F47F468D
:1022B000206886602868502833D00CDC202850D055
:1022C00004DC00284BD0102851D149E0302849D0F7
:1022D00040284CD139E060282DD0702807D0B0F5C7
:1022E000805F03D0B0F5005F41D10DE041E0D5E95A
:1022F00002136A68206802F02FF82068866846F0AA
:1023000077062068866034E0D5E902136A682068A1
:1023100002F022F82068806840F4804021688860DC
:1023200027E0EA686968206802F02AF850212068EE
:1023300002F01DF81DE0EA686968206802F033F8D1
:102340006021206802F013F813E0EA6869682068E9
:1023500002F016F84021206802F009F809E000BFF9
:1023600000BF00BF2968206802F001F801E00127E2
:1023700000BF00BF012084F83D0000BF002084F8AA
:102380003C0000BF384684E7704770B504462068BB
:10239000C5682068066906F00200022819D105F018
:1023A0000200022815D1401F216808610120207712
:1023B0002068806900F0030018B12046FFF7E4FFB1
:1023C00005E0204600F097F8204600F095F8002040
:1023D000207706F00400042819D105F00400042831
:1023E00015D1C043216808610220207720688069E8
:1023F00000F4407018B12046FFF7C6FF05E0204604
:1024000000F079F8204600F077F80020207706F0F9
:102410000800082819D105F00800082815D1C04384
:1024200021680861042020772068C06900F003005B
:1024300018B12046FFF7A8FF05E0204600F05BF842
:10244000204600F059F80020207706F010001028F0
:1024500019D105F01000102815D1C043216808617A
:10246000082020772068C06900F4407018B1204629
:10247000FFF78AFF05E0204600F03DF8204600F017
:102480003BF80020207706F0010048B105F001007C
:1024900030B16FF0010021680861204600F02EF88D
:1024A00006F08000802809D105F08000802805D141
:1024B000C043216808612046FFF7F2FD06F04000A6
:1024C000402809D105F04000402805D1C0432168CB
:1024D0000861204600F01EF806F02000202809D1EF
:1024E00005F02000202805D1C0432168086120465E
:1024F000FFF7D7FD70BD70477047000010B5044668
:1025000003492068884201D1FFF710F910BD00008F
:1025100000400140704700BFFEE7000013B50023F4
:10252000642269460248006803F04CFD1CBD0000AF
:10253000F00000201CB51CE04FF0FF310D48006892
:1025400003F0B6FF4FF0FF320B490C48006803F070
:10255000FBFE094800880849496801234022CDE96B
:10256000001078210648FEF73FFF034880780549B0
:102570000870E1E7F8000020FC000020F0000020D7
:10258000100100200401002010B50248FEF762FC93
:1025900010BD000010010020C16AB1F52A0F02D160
:1025A0000121C16205E0C16AB1F12A4F01D10821C0
:1025B000C1627047F8B5054600200090AC6B94F8F6
:1025C0003D60394800681921B0FBF1F04FF47A7191
:1025D000B0FBF1F0C0EBC00000EB8000009000BF4A
:1025E000009820B9206C40F02000206409E0009899
:1025F000401E00902068006800F40070B0F5007F75
:10260000EED000BF606B10B10020616BC863A06B9F
:1026100010B10020A16BC8632068006820F48060BE
:102620002168086000206085606B10B10020616B3C
:102630000865A06B10B10020A16B086520680068D8
:1026400020F001002168086094F83D0060280AD15C
:10265000202084F83D00002084F83E0020642046BD
:10266000FEF7F6FB1EE006F02800282811D12068AE
:10267000006840F00100216808602068006840F4AC
:1026800080602168086000202063282084F83D00D5
:1026900005E0202084F83D00002084F83E0020461C
:1026A000FEF7C5FCF8BD00000C00002070B5054623
:1026B000AC6B606B10B10020616BC863A06B10B194
:1026C0000020A16BC8632846FEF7F0F8022814D05A
:1026D0002068006820F48060216808600020608520
:1026E000202084F83D00002084F83E00206C40F05B
:1026F000100020642046FEF79AFC70BD2DE9F041E1
:102700000746BC6B94F83D6094F83E80E56A20680B
:10271000406820F4407021684860606B10B1002070
:10272000616BC863A06B10B10020A16BC86306F099
:102730002100212806D006F02200222826D1B8F157
:10274000200F23D12068406820F400602168486091
:1027500000206085292E08D121202063282084F8BC
:102760003D002046FEF7E1FF09E02A2E07D1222096
:102770002063282084F83D002046FEF7D5FF20681E
:10278000406840F440702168486054E094F83E008E
:10279000002850D0608D012805D12068006820F401
:1027A0008060216808602068406820F440702168DB
:1027B000486015F5803F06D0082D04D0B5F12A4FAA
:1027C00001D0202D05D12068006840F400702168F8
:1027D00008602068406820F48050216848602068C4
:1027E000406820F400602168486000206085206C0B
:1027F00018B12046FEF71BFC1DE0202084F83D00A8
:1028000094F83E00402807D1002084F83E00206361
:102810002046FEF7B1FD0EE0002084F83E00082DB2
:1028200001D0202D02D10020206301E0122020637E
:102830002046FEF7E6FCBDE8F08101684969C1F376
:10284000C01111B100210268116170472DE9F041FA
:10285000044694F83D6094F83E70102F01D0402F4C
:1028600007D1222E05D12068006820F4006021687D
:10287000086006F02800282805D1002020632820C1
:1028800084F83D0010E02068406800F40060B0F576
:10289000006F07D0602E05D0202084F83D00002076
:1028A00084F83E00002020632068406800F4006047
:1028B000B0F5006F40D12068406820F400602168C6
:1028C0004860606B90F83500012814D04848616B6F
:1028D0000865606BFDF7D6FF00285BD020680068B4
:1028E00020F0010021680860202084F83D00606B22
:1028F000016D88474EE03E48A16B0865A06BFDF76F
:10290000C1FF002846D020684069C0F3801030B174
:1029100020680069616A0870606A401C6062206813
:10292000006820F0010021680860202084F83D0044
:10293000A06B016D88472DE094F83D0060281AD106
:10294000202084F83D000020206420684069C0F306
:10295000801030B120680069616A0870606A401CAC
:1029600060622068006820F001002168086020464D
:10297000FEF76EFA0EE020684069C0F3801030B1B7
:1029800020680069616A0870606A401C60622046C5
:10299000FEF74DFB256C05F0010058B905F002006B
:1029A000022807D005F00400042803D005F0080031
:1029B000082805D12068406820F4E060216848605C
:1029C00094F83D60206C00F0040004280ED1282EFD
:1029D0000CD10848E06200202063202084F83D00EC
:1029E000002084F83E002046FEF70AFCBDE8F08196
:1029F000B52500080000FFFF014608684069C0F3E4
:102A00008020B0B16FF480600A68506100200863D4
:102A1000202081F83D00002081F83E00086C40F045
:102A20000400086400BF002081F83C0000BF0120C2
:102A300070470020FCE770B50446E56A608D042805
:102A400010D12068406820F48060216848602068C8
:102A50000069616A0870606A401C6062608D401E97
:102A600060857FE0608D03281AD12068406820F4DB
:102A7000806021684860042D07D0022D05D02068B1
:102A8000006820F480602168086020680069616A3D
:102A90000870606A401C6062608D401E608561E065
:102AA000608D022854D1012D01D0102D06D120684F
:102AB000006820F480602168086010E0042D01D0D7
:102AC000022D06D12068006840F48060216808600B
:102AD00005E02068006840F4007021680860206804
:102AE0000069616A0870606A401C6062608D401E07
:102AF000608520680069616A0870606A401C6062D5
:102B0000608D401E60852068406820F44070216818
:102B10004860202084F83D0094F83E00402807D10A
:102B2000002084F83E0020632046FEF725FC19E0D3
:102B3000002084F83E00082D01D0202D02D1002075
:102B4000206301E0122020632046FEF75AFB09E0D3
:102B500020680069616A0870606A401C6062608D6C
:102B6000401E608570BD70B5044694F83D00222873
:102B70007AD1E66A658D032D13D920680069616AF0
:102B80000870606A401C6062608D401E6085608DC8
:102B9000032868D12068406820F48060216848607C
:102BA00061E0E06A022858D0012D01D0002D54D1F7
:102BB000204600F051FEA0BB2068006820F4806031
:102BC000216808602068406820F4E060216848605F
:102BD00020680069616A0870606A401C6062608DEC
:102BE000401E6085202084F83D0094F83E00402877
:102BF00007D1002084F83E0020632046FEF7BCFB8E
:102C000031E0002084F83E00082E01D0202E02D1B1
:102C10000020206301E0122020632046FEF7F1FA35
:102C200021E0FFE72068406820F4E0602168486008
:102C300020680069616A0870606A401C6062608D8B
:102C4000401E6085202084F83D00002084F83E006E
:102C50002046FEF7ECF906E006E02068406820F424
:102C600080602168486000BF70BD00002DE9F84316
:102C700004460D4617469846E66A082E04D0012EF3
:102C800002D016F5803F06D12068006840F48070BD
:102C90002168086008E0206B122805D120680068D0
:102CA00040F48070216808603B4600224FF001111B
:102CB0002046CDF8008000F0F2FC60B1206800688A
:102CC00000F48070B0F5807F02D14FF40070206472
:102CD0000320BDE8F8832069B0F5804F04D105F0EA
:102CE000FE002168086112E005F44070F02141EA1D
:102CF000E0102168086143463A460B49204600F03F
:102D00002DFD08B10120E4E7E8B2216808614346DF
:102D10003A460549891F204600F020FD08B10120F0
:102D2000D7E70020D5E700000800010070B5044691
:102D3000E56A94F83D00212847D1608D50B1606A62
:102D4000007821680861606A401C6062608D401EE6
:102D500060853AE0082D16D0202D14D015F5803F5F
:102D600011D02068406820F4E0602168486011209C
:102D70002063002084F83E00202084F83D00204697
:102D8000FEF740FA21E02068406820F4E060216806
:102D900048602068006840F40070216808600020E6
:102DA0002063202084F83D0094F83E00402806D19E
:102DB000002084F83E002046FEF7E0FA05E00020FF
:102DC00084F83E002046FEF71DFA70BD2DE9F04163
:102DD000044694F83D5094F83E70E66A208DB0BBEE
:102DE000212D3CD1082E16D0202E14D016F5803F70
:102DF00011D02068406820F4E0602168486011200C
:102E00002063002084F83E00202084F83D00204606
:102E1000FEF7F8F944E02068406820F4E06021689B
:102E200048602068006840F4007021680860002055
:102E30002063202084F83D0094F83E00402807D10C
:102E4000002084F83E002046FEF798FA28E006E0CD
:102E5000002084F83E002046FEF7D4F920E0212D22
:102E600003D0402F1CD1222D1AD1608D30B920689B
:102E7000406820F480602168486011E094F83E00CA
:102E8000402803D1204600F0A5F909E0606A0078E7
:102E900021680861606A401C6062608D401E608528
:102EA000BDE8F081416CC9B202681161416B11B19A
:102EB000416BC96B21B9816B41B1816BC96B29B180
:102EC0000168496841F4006102685160704738B593
:102ED00090F83E20C16A036B90F83D40222C73D1DC
:102EE000046D64B9402A0AD100BF0024009404682C
:102EF000646900940468A469009400BF1AE1046D39
:102F0000C4B90469B4F5404F14D100BF0024009443
:102F10000468646900940468A469009400BF00BF59
:102F20000468246844F4807405682C60046D641C93
:102F30000465FFE0448D8CB900BF00240094046850
:102F4000646900940468A469009400BF00BF046829
:102F5000246844F4007405682C60DDE0448D012C85
:102F600072D111F5803F30D10468246824F4806464
:102F700005682C600468646804F40064B4F5006FAC
:102F800010D10468246824F4806405682C6000BFB4
:102F9000002400940468646900940468A46900949F
:102FA00000BFB9E000BF0024009404686469009485
:102FB0000468A469009400BF00BF0468246844F456
:102FC000007405682C60A7E0A9E0082923D0202917
:102FD00021D0122B01D101291DD104290AD00229A7
:102FE00008D0102906D00468246824F48064056899
:102FF0002C6005E00468246844F4806405682C6053
:1030000000BF002400940468646900940468A46903
:10301000009400BF80E00468246824F4806405689C
:103020002C6000BF00240094046864690094046864
:10303000A469009400BF00BF0468246844F40074CD
:1030400005682C6068E0FFE7448D022C3BD1042921
:1030500010D002290ED010290CD00468246824F462
:10306000806405682C600468246844F40064056882
:103070002C6005E00468246844F4806405682C60D2
:103080000468646804F40064B4F5006F10D111F5AD
:10309000803F07D0012905D0082903D0102901D08D
:1030A000202905D10468646844F4805405686C6084
:1030B00000BF002400940468646900940468A46953
:1030C000009400BF28E00468246844F48064056824
:1030D0002C600468646804F40064B4F5006F10D1D7
:1030E00011F5803F07D0012905D0082903D0102908
:1030F00001D0202905D10468646844F4805405682F
:103100006C6000BF00240094046864690094046843
:10311000A469009400BF00BF002404650AE000BF5A
:10312000002400940468646900940468A46900940D
:1031300000BF00BF38BD90F83E1040290ED1016D90
:1031400029B9416C01F0FE010268116141E0416C56
:10315000C9B241F00101026811613AE00169B1F5BB
:10316000804F20D190F83D10212905D1416C01F00C
:10317000FE010268116105E0416CC9B241F0010134
:1031800002681161416B11B1416BC96B21B9816B4F
:10319000F9B1816BC96BE1B10168496841F4006123
:1031A0000268516015E0016D41B9416C01F4407154
:1031B000F02242EAE111026811610AE0016D012981
:1031C00007D1416C01F44071F12242EAE111026839
:1031D0001161704770B5044694F83D50206D98B960
:1031E000E06C012807D1A06CC0B221680861206D95
:1031F000801C206550E0A06CC0F3072021680861A6
:10320000206D401C206547E0206D012807D1A06C8F
:10321000C0B221680861206D401C20653CE0206D33
:10322000022836D1222D09D12068006840F4807030
:1032300021680860206D401C20652DE0608D60B124
:10324000212D0AD1606A007821680861606A401CFB
:103250006062608D401E60851EE0608DE0B9212DAA
:103260001AD12068406820F4E06021684860206836
:10327000006840F40070216808600020206320206E
:1032800084F83D00002084F83E002046FEF776F8E2
:1032900002E02046FFF7D1FA70BD00002DE9F843A7
:1032A0000446884615469946DDE9086720680068A7
:1032B00040F4807021680860334600224FF001110D
:1032C0002046009700F0EBF960B12068006800F438
:1032D0008070B0F5807F02D14FF40070206403202D
:1032E000BDE8F88308F0FE00216808613B463246DD
:1032F0002149204600F032FA08B10120F0E700BF72
:10330000002000902068406900902068806900904B
:1033100000BF00BF3A463146204600F0C5FA50B122
:10332000206C042805D12068006840F400702168F2
:1033300008600120D4E7B9F1010F03D1E8B2216898
:10334000086117E0C5F30720216808613A46314655
:10335000204600F0A9FA50B1206C042805D120685D
:10336000006840F40070216808600120B8E7E8B206
:10337000216808610020B3E702000100418D49B1D6
:1033800001680969426A1170416A491C4162418DB4
:10339000491E4185704770B5044694F83D50608DD4
:1033A000D8B120680069616A0870606A401C606278
:1033B000608D401E6085608D78B92A2D0DD1206802
:1033C000406820F480602168486022202063282023
:1033D00084F83D002046FEF7A7F970BD418D49B144
:1033E000416A097802681161416A491C4162418D54
:1033F000491E4185704770B5044694F83D50608D74
:10340000D8B1606A007821680861606A401C606217
:10341000608D401E6085608D78B9292D0DD12068A2
:10342000406820F4806021684860212020632820C3
:1034300084F83D002046FEF778F970BDF8B50446E3
:103440000D46002794F83D0000F0280028281CD1E4
:103450002068406820F4806021684860C5F38000DF
:1034600000B90127C5F3C01010B9A08986B201E0E8
:10347000208B86B200BF002084F83C0000BF32469B
:1034800039462046FDF7E5FC0FE000BF0020009024
:1034900020684069009020688069009000BF00BFEC
:1034A00000BF002084F83C0000BFF8BD38B50446DA
:1034B00094F83D502068406820F4E060216848603E
:1034C00000BF0020009020684069009020680068DC
:1034D00040F001002168086000BF00BF206800685C
:1034E00020F48060216808602068406800F4006073
:1034F000B0F5006F42D1222D01D02A2D1FD1A06B33
:10350000006840686085608D18B1206C40F0040050
:1035100020642068406820F4006021684860A06B47
:10352000FDF7C7F9012829D04148A16B0865A06BB8
:10353000FDF7A8F910B3A06B016D88471EE0606B22
:10354000006840686085608D18B1206C40F0040010
:1035500020642068406820F4006021684860606B47
:10356000FDF7A7F9012809D03148616B0865606B48
:10357000FDF788F910B1606B016D8847608D18B355
:1035800020684069C0F3800048B120680069616A22
:103590000870606A401C6062608D401E6085206813
:1035A0004069C0F3801048B120680069616A087002
:1035B000606A401C6062608D401E6085608D18B13D
:1035C000206C40F004002064206C18B12046FFF706
:1035D0003DF92BE02A2D07D100202063282084F814
:1035E0003D002046FEF7A0F894F83D0028280DD1B4
:1035F0001048E06200202063202084F83D00002075
:1036000084F83E002046FDF7FBFD0FE0206B2228EA
:1036100001D0222D0AD100202063202084F83D0013
:10362000002084F83E002046FEF77EF838BD0000FA
:10363000B52500080000FFFF70B504460D4616468C
:1036400025E02046FFF7D8F908B1012070BD681CBD
:10365000E8B1FDF7F7FB801BA84200D8BDB9206890
:103660004069C0F3800090B900202063202084F8D6
:103670003D00002084F83E00206C40F020002064D3
:1036800000BF002084F83C0000BF0120DEE7206876
:103690004069C0F380000028D3D00020D6E72DE990
:1036A000F04104460D4617461E46DDF8188038E006
:1036B000701CA8B3FDF7C6FBA0EB0800B04200D811
:1036C00076BBC5F3074001280AD120684069A9B23A
:1036D0000840A9B2884201D101200BE0002009E096
:1036E00020688069A9B20840A9B2884201D10120AE
:1036F00000E00020B84214D100202063202084F88C
:103700003D00002084F83E00206C40F02000206442
:1037100000BF002084F83C0000BF0120BDE8F0811C
:10372000FFE7C5F3074001280AD120684069A9B224
:103730000840A9B2884201D101200BE0002009E035
:1037400020688069A9B20840A9B2884201D101204D
:1037500000E00020B842ABD00020DFE72DE9F041C7
:1037600004460D4616461F4658E020684069C0F3DF
:103770008020E8B12068006840F40070216808608B
:103780006FF480602168486100202063202084F865
:103790003D00002084F83E00206C40F004002064CE
:1037A00000BF002084F83C0000BF0120BDE8F0818C
:1037B000701C90B3FDF746FBC01BB04200D866BB3F
:1037C000C5F3074001280AD120684069A9B2084022
:1037D000A9B2884201D101200BE0002009E0206855
:1037E0008069A9B20840A9B2884201D1012000E055
:1037F000002090B900202063202084F83D000020A4
:1038000084F83E00206C40F02000206400BF0020BF
:1038100084F83C0000BF0120C8E7FFE7C5F307407C
:1038200001280AD120684069A9B20840A9B288429B
:1038300001D101200BE0002009E020688069A9B2D5
:103840000840A9B2884201D1012000E000200028F0
:103850008BD00020AAE7000008B5014600200090A8
:10386000104800681922B0FBF2F04FF47A72B0FBF6
:10387000F2F000EB8000009000BF0098401E009026
:10388000009828B9086C40F020000864012008BDA9
:103890000868006800F40070B0F5007FEDD00020EB
:1038A000F5E700000C00002070B504460D461646F2
:1038B00025E02046FFF7A0F808B1012070BD681C84
:1038C000E8B1FDF7BFFA801BA84200D8BDB9206857
:1038D0004069C0F3C01090B900202063202084F814
:1038E0003D00002084F83E00206C40F02000206461
:1038F00000BF002084F83C0000BF0120DEE7206804
:103900004069C0F3C0100028D3D00020D6E70000E3
:1039100008B500BF002000900E48006840F4001079
:103920000C4908600846006800F40010009000BFD1
:1039300000BF002205210B20FDF7B0FF0B20FDF793
:1039400099FF002205211120FDF7A8FF1120FDF7A6
:1039500091FF08BD303802403EB5002002901C485F
:1039600002AB0122114600901AA003F07DF91B4919
:10397000086000220821142002F03AFA1849086071
:1039800003220021012002F033FA1649086016488C
:10399000182100234FF48072CDE9001013A11748BD
:1039A00002F0A8FE00231A4619460E48006802F0ED
:1039B00009FB02F03FFF04464FF0FF300023224690
:1039C000012100900548006803F0A6F93EBD000003
:1039D000313B000854696D6572310000D800002049
:1039E000F0000020F8000020F40000204932435F7E
:1039F0005472616E735461736B00000035250008CA
:103A000008B500BF002000901D48006840F0040089
:103A10001B4908600846006800F00400009000BFE1
:103A200000BF00BF002000900846006840F0800002
:103A300008600846006800F08000009000BF00BFEA
:103A400000BF002000900846006840F001000860B8
:103A50000846006800F00100009000BF00BF00BFF2
:103A6000002000900846006840F002000860084608
:103A7000006800F00200009000BF00BF08BD000019
:103A80003038024010B50B480B4908600B484860BD
:103A9000002109488160C1604FF48041016100212B
:103AA00041618161C1610162FDF7C2FA08B1FCF7B1
:103AB000D4FE10BD0054004010010020801A060002
:103AC00000B587B000200390049005900690019007
:103AD00002904FF080401449086053204860002154
:103AE0001148816040F2E731C160002101618161CC
:103AF000FEF726FB08B1FCF7B0FE4FF480500390B0
:103B000003A90948FEF7BAFB08B1FCF7A6FE00209E
:103B10000190029001A90448FEF7C4FA08B1FCF72D
:103B20009CFE07B000BD00002402002000BFFEE79D
:103B300010B504460748006884420AD10648007858
:103B400020B900F045FC012003490870034800F04B
:103B50006FFC10BDD8000020DC00002008520020BF
:103B600000BFFEE710B58D2000F04CFA142000F0E5
:103B700049FAAF2000F046FA10BD2DE9F04F2DEDC7
:103B8000048B81B006460D4690469946DDE90E4A03
:103B900008EBD8725210A24204DB09EBD972521022
:103BA000A24209DAC84501DA414600E04946084622
:103BB00001EBD071C1F347042819C7B20CE006EB42
:103BC0000800401EC2B23B4639463046CDF800A040
:103BD00000F0ECF8781CC7B205EB0900001BB842F6
:103BE000EDDC002739E005EB070C0CF0FF0306EBDA
:103BF000080CACEB040CACF1010C0CF0FF0205EB73
:103C0000070C0CF0FF0106EB040C0CF0FF00CDF8E4
:103C100000A000F0CBF805EB090CACEB070CACF105
:103C2000010C0CF0FF0306EB080CACEB040CACF140
:103C3000010C0CF0FF0205EB090CACEB070CACF12E
:103C4000010C0CF0FF0106EB040C0CF0FF00CDF8AA
:103C500000A000F0ABF8781CC7B2A742C3DB002776
:103C60009BE004FB04F107FB171003F0C4F841ECE0
:103C7000190BB0EE490AF0EE690A00F024FEB0EE2E
:103C8000408AF0EE608A51EC180B03F087F800F0E0
:103C9000FF0B05EB040CACEB070CACF1010C0CF0CA
:103CA000FF0306EB040CACF1010C0CF0FF0205EB7A
:103CB000040CACEB070CACF1010C0CF0FF0106EBB3
:103CC000040CACEB0B0C0CF0FF00CDF800A000F0E6
:103CD0006DF805EB040CACEB070CACF1010C0CF02F
:103CE000FF0306EB080CACEB040CDC44ACF1010C5C
:103CF0000CF0FF0205EB040CACEB070CACF1010C73
:103D00000CF0FF0106EB080CACEB040C0CF0FF0010
:103D1000CDF800A000F04AF805EB090CACEB040C60
:103D2000BC440CF0FF0306EB040CACF1010C0CF0EE
:103D3000FF0205EB090CACEB040CBC440CF0FF01DA
:103D400006EB040CACEB0B0C0CF0FF00CDF800A064
:103D500000F02CF805EB090CACEB040CBC440CF0A7
:103D6000FF0306EB080CACEB040CDC44ACF1010CDB
:103D70000CF0FF0205EB090CACEB040CBC440CF09E
:103D8000FF0106EB080CACEB040C0CF0FF00CDF8C7
:103D900000A000F00BF8781CC7B2A742FFF661AF95
:103DA00001B0BDEC048BBDE8F08F00002DE9FE4FA3
:103DB00004460D4616461F46B44213D1BD4203DDEC
:103DC0004C4805703D460778A84608E04146204625
:103DD0000C9A00F02DF908F1010000F0FF08B84539
:103DE000F4DD84E0BD4213D1B44203DD41480470E8
:103DF00034460678A04608E0294640460C9A00F072
:103E000017F908F1010000F0FF08B045F4DD6EE09D
:103E1000A6EB0408A7EB0509B8F1000F01DD0120AE
:103E200000E000200121C1EB40000290B9F1000F39
:103E300001DD012000E000200121C1EB40000190E4
:103E4000A34600954FF0000AB8F1000001DB0146DF
:103E500000E041420FFA81F8B9F1000001DB0146B0
:103E600000E041420FFA81F9C8451FDDA3461AE080
:103E7000009AD1B20BF0FF000C9A00F0D9F80AEBCF
:103E800009000FFA80FAB8EB4A0F08DCDDE90001FF
:103E9000084400B20090AAEB08000FFA80FA0298DA
:103EA00058440FFA80FBB345E2D11FE000951AE0B9
:103EB000009AD1B20BF0FF000C9A00F0B9F80AEBAF
:103EC00008000FFA80FAB9EB4A0F07DC0298584451
:103ED0000FFA80FBAAEB09000FFA80FADDE9000176
:103EE000084400B200900098B842E1D100BFBDE89C
:103EF000FE8F0000EF00002010B5AE2000F082F829
:103F0000202000F07FF8002000F07CF8212000F055
:103F100079F8002000F076F87F2000F073F8222076
:103F200000F070F8002000F06DF8072000F06AF84B
:103F3000B02000F067F8C82000F064F8002000F01E
:103F400061F8102000F05EF8402000F05BF881205E
:103F500000F058F8DF2000F055F8A12000F052F8EA
:103F6000A62000F04FF8A82000F04CF83F2000F009
:103F700049F8A42000F046F8D32000F043F80020D0
:103F800000F040F8D52000F03DF8F02000F03AF8BD
:103F9000D92000F037F8222000F034F8DA2000F0C1
:103FA00031F8122000F02EF8DB2000F02BF8202052
:103FB00000F028F88D2000F025F8142000F022F8F9
:103FC00000F006F800F078F8AF2000F01BF810BD04
:103FD00010B54FF480610248FCF772FA10BD000082
:103FE000A852002038B504460D464FF0FF302B464E
:103FF0002246782100900248FDF706F938BD0000FE
:104000001001002010B50446024844700221FFF759
:10401000E9FF10BDEC00002010B5044614B9A6203D
:10402000FFF7F0FF012C02D1A720FFF7EBFF10BD37
:10403000F0B503461446802B01DA402900DBF0BDC1
:10404000DCB9CD1701EB5575ED101A4E06EBC51511
:10405000ED5C0A46CE1701EB5676F610A1EBC607CB
:104060000126BE4035430846CE1701EB5676F610C2
:10407000104F07EBC616F5541AE0CD1701EB557536
:10408000ED100C4E06EBC515ED5C0A46CE1701EBA4
:104090005676F610A1EBC6070126BE40B54308468A
:1040A000CE1701EB5676F610024F07EBC616F55405
:1040B00000BFC4E7A852002010B540200F49087087
:1040C000002418E004F1B001C8B2FFF79BFF002004
:1040D000FFF798FF1020FFF795FF094800EBC41188
:1040E00080220648401CFCF79EF981210348FFF717
:1040F00079FF601CC4B2082CE4DB10BDB876002048
:10410000A852002010B50024082115480078FCF7BB
:10411000A7FB04460CB34FF48060124908800846A0
:104120008470601E00EB40200F4901EB40000D49F8
:10413000486021460A4800F01BF8611E01EB41214E
:10414000094A02EB41004FF480620849FCF76BF921
:10415000044803C8FEF7E2F900E010BD00BFFCE729
:10416000E0000020E4000020A8560020A852002013
:1041700010B5002901DD082900DD10BD02784B1EB5
:1041800001249C402243027000BFF6E710B50029CD
:1041900001DD082900DD10BD02784B1E01249C4082
:1041A000A243027000BFF6E710B54FF0E0200069AF
:1041B00002F030FB012801D001F000FE10BD00002C
:1041C00000B593B0302107A8FCF79CF9142102A890
:1041D000FCF798F900BF002001902548006840F0E6
:1041E0008050234908600846006800F08050019024
:1041F00000BF00BF00BF002001901E48006820F4EF
:10420000404040F400401B4908600846006800F444
:104210004040019000BF00BF0220079001200A909B
:1042200010200B9002200D9000210E9108210F917B
:1042300054211091022111910421129107A8FDF738
:10424000E1FC08B1FCF709FB0F200290022003906B
:10425000002004904FF48050059000200690022129
:1042600002A8FDF76DFB08B1FCF7F7FA13B000BD2B
:1042700040380240007000400348006840F470007D
:10428000014908607047000088ED00E010B5024861
:10429000FEF77BF810BD00006C02002010B502484C
:1042A000FEF773F810BD00002402002010B502686C
:1042B000224B98420BD0B0F1804F08D0204B98424F
:1042C00005D0204B984202D01F4B984203D122F0D8
:1042D00070024B681A43194B984214D0B0F1804FCA
:1042E00011D0174B98420ED0164B98420BD0164B5C
:1042F000984208D0154B984205D0154B984202D0F1
:10430000144B984203D122F44072CB681A4322F036
:1043100080034C6943EA04028B68C3620B688362C2
:10432000064B984201D10B690363036843F0040311
:10433000036001234361026010BD000000000140E2
:104340000004004000080040000C00400040014014
:10435000004401400048014030B50C46816821F41A
:104360007F4142EA032525432943816030BD0A4647
:10437000816821F0700142F00703194381607047A2
:1043800030B50B461446026A056A25F00105056240
:10439000816921F0F00141EA041122F00A021A4376
:1043A0008161026230BD30B50B461446026A056A6F
:1043B00025F010050562816921F4704141EA04315C
:1043C00022F0A00242EA03128161026230BD0000C5
:1043D00010B55420FCF70CFAFFF78EFD0020FFF714
:1043E0001BFEFFF7BFFBFFF7F3FD0A221E21024869
:1043F00000F090F810BD00000852002000BFFEE75A
:1044000008B5084840680090074900980968884244
:1044100004D206480068401C04490860024900981C
:10442000086008BD001000E0A8000020A4000020E3
:1044300030B593B00446FFF7CBFD012084F89C0013
:1044400094F89C0050B104F10C01204600F0ACF847
:1044500004F15401204600F0A7F80DE0207A00EEA8
:10446000100AB8EE400A84ED120A207A00EE100A13
:10447000B8EE400A84ED240AA07A00EBD0714A100D
:1044800094F944101144C1F14001A4F84C10D4ED4A
:10449000120AB0EE001A80EE810ADFED1D0A30EE3E
:1044A000C00ABDEEC00A10EE100A01B2A4F84E1008
:1044B000A07A00EBD07149104031A4F89410D4EDEB
:1044C000240AB0EE001A80EE810ADFED110A30EE08
:1044D000C00ABDEEC00A10EE100A01B2A4F8961090
:1044E00004F10C0101A800F0CFF80546294620464A
:1044F00000F0B4F804F1540101A800F0C5F8054635
:104500002946204600F0AAF8FFF7FCFD13B030BDA5
:1045100000000042F8B504460D4616462572667244
:10452000607AA0726FF013000346142211469FEDCB
:104530001C1ADFED1C0A9FED1A0A009004F10C0012
:1045400000F0C7F86FF013000346142211469FEDE8
:10455000141ADFED140A9FED120A009004F15400C2
:1045600000F0B7F80621A4F85010A4F89810207AAB
:1045700000EE100AB8EE400A84ED120A207A41B229
:1045800084F84410207A00EE100AB8EE400A84ED58
:10459000240A207A41B284F88C10FFF719FDF8BD87
:1045A00000000000ACC5273770B505460C4694F8EE
:1045B000460078B9D4ED0F0AB0EE600A204600F04C
:1045C00098F8B0EE000A204600F080F8204600F08F
:1045D00093F813E0D4ED0F0AB0EE600A204600F025
:1045E00088F8287A00EE900AF8EE600AB0EE600AC9
:1045F000204600F06BF8204600F07EF8204600F0E0
:1046000075F8D4ED0F0A30EE200A84ED0F0A94ED10
:104610000F0AF0EE000AB4EEE00AF1EE10FA06D846
:10462000B0EE000A84ED0F0A012084F84600D4EDB4
:104630000F0A287A00EE100AB8EE400AF4EEC00A1B
:10464000F1EE10FA09DB287A00EE100AB8EE400A03
:1046500084ED0F0A002084F8460070BD7CB5054645
:104660000C4600213834207BCDE9000194ED010A8D
:10467000BCEEC00A10EE106AF3B22278A17A207A5A
:10468000383CFFF77AFA7CBD70B504460D462946E2
:10469000204600F0BFF8044615F8380F04F8380F2C
:1046A00095ED010A84ED010A2889208168896081DD
:1046B000A889A081A87B383DA073383C204670BDF6
:1046C00001490160704700008C70000880ED020A0B
:1046D000704710B5029C80ED050AC0ED060A80ED1A
:1046E000071A018682864386C48610BD90ED080AAB
:1046F000704780ED010A704790ED020AD0ED010A83
:1047000030EE600A80ED030A90ED030AD0ED050A51
:1047100020EE200A80ED090A90ED0A0AD0ED030A86
:1047200090ED061A00EE810A80ED0A0A90ED030A68
:10473000D0ED040A30EE600AD0ED070A20EE200A20
:1047400080ED0B0A90ED030A80ED040AD0ED0A0A11
:10475000B0F9341000EE101AB8EEC00AF4EEC00A38
:10476000F1EE10FA08DDB0F9341000EE101AB8EED0
:10477000C00A80ED0A0A14E0D0ED0A0AB0F936103A
:1047800000EE101AB8EEC00AF4EEC00AF1EE10FA0C
:1047900007D2B0F9361000EE101AB8EEC00A80ED5C
:1047A0000A0A90ED090AD0ED0A0A30EE200AD0ED8F
:1047B0000B0A30EE200A80ED080AD0ED080AB0F9A5
:1047C000301000EE101AB8EEC00AF4EEC00AF1EE96
:1047D00010FA08DDB0F9301000EE101AB8EEC00A79
:1047E00080ED080A14E0D0ED080AB0F9321000EEAE
:1047F000101AB8EEC00AF4EEC00AF1EE10FA07D2B1
:10480000B0F9321000EE101AB8EEC00A80ED080AB6
:10481000704700001B4A026091ED010A80ED010A19
:1048200091ED020A80ED020A91ED030A80ED030A80
:1048300091ED040A80ED040A91ED050A80ED050A68
:1048400091ED060A80ED060A91ED070A80ED070A50
:1048500091ED080A80ED080A91ED090A80ED090A38
:1048600091ED0A0A80ED0A0A91ED0B0A80ED0B0A20
:104870000A8E02864A8E42868A8E8286CA8EC286B8
:10488000704700008C70000802480068C0F30220E6
:10489000704700000CED00E010B5002804DB0A07AB
:1048A000130E054A135406E00A07140E034A00F0DB
:1048B0000F031B1FD45410BD00E400E018ED00E00E
:1048C000EFF30580704700B52DED048BB0EE409AF4
:1048D000F0EE609A83B051EC190B02F0F1FA41EC62
:1048E000180B18EE100A18EE901A8DED008B0028A8
:1048F00018BF0120084320F00040C0F17F6000F1A4
:10490000E040C00F14D019EE101A19EE900A8DED88
:10491000009B002918BF0121084320F00040C0F18E
:104920007F6000F1E040C00F04BF0120FBF72BFEC9
:10493000B0EE480A03B0F0EE680ABDEC048B00BD8F
:1049400010B5064C04F10C00FFF7BAFEA0F10C0400
:104950004830FFF7B5FEA0F1540410BD0852002006
:10496000024840680249086070470000001000E0FB
:10497000B8000020FCF7E6FEFFF722FCFFF740F846
:10498000FEF7C6FFFFF77EF8FFF79AF800F006F88B
:10499000FEF7E2FF00F018F800BFFEE710B5FFF7E2
:1049A0008FFF10B16FF0050409E00648006820B9D8
:1049B000012004490860002401E04FF0FF34204644
:1049C00010BD00006000002070B5FFF779FF10B146
:1049D0006FF005041FE011480068012819D100BFDD
:1049E000801F0021002804DB0A07130E0C4A135411
:1049F00006E00A07150E0B4A00F00F031B1FD554E3
:104A000000BF00BF02200549086001F069F80024DA
:104A100001E04FF0FF34204670BD00006000002030
:104A200000E400E018ED00E02DE9F04105460E46F7
:104A30001648076816480068001D00F00FFE681C45
:104A400038B936B112480168091D124800F060FEFD
:104A50001AE07C190E4800684460BC4207D20C483A
:104A60000168091D0C48006800F038FE0CE0084899
:104A70000168091D0948006800F030FE0848006818
:104A8000844201D206480460BDE8F0812400002081
:104A900010000020A40700201800002014000020AF
:104AA0004000002010B5044600F03EFE2448006897
:104AB000401C234908602348006840B9214804602D
:104AC0000846006801280DD100F034FA0AE01E48BB
:104AD000006838B91B480068C06AE16A884201D89A
:104AE0001848046019480068401C184908600846C6
:104AF000006860641649E06A0968884202D914496E
:104B0000E06A0860E16A01EB8101124A02EB810070
:104B1000211D00F0FDFD00F031FE0B48006868B17A
:104B200008480068C06AE16A884207D24FF08050A6
:104B300009490860BFF34F8FBFF36F8F10BD0000AE
:104B400020000020100000202C0000203C0000204D
:104B500028000020F402002004ED00E008B500F079
:104B6000E3FD12480068E8B9114800F0A7FD1148BC
:104B700000F0A4FD0E48104908600E480F49086077
:104B800000200F4B0F4A102100900A2001F05DF920
:104B9000064908600846006820B10BA10348006878
:104BA00000F0ACFE00F0EAFD08BD0000540000205B
:104BB000B8070020CC0700204C0000205000002047
:104BC000E007002030080020546D72510000000002
:104BD00010B516E000F0A8FD0C48C068C468201DA0
:104BE00000F03CFD0A480068401E09490860094879
:104BF0000068401E0749086000F0C0FD204600F034
:104C00005FF8044800680028E4D110BD9007002038
:104C1000200000201C00002070B504460D46206CCA
:104C200070B1216CE0680144E160D4E9021088426F
:104C300001D32168E1602846226CE168FBF7F3FBB1
:104C400070BD2DE9F04104460F4615464FF00008AF
:104C5000A66B206C48B9206800282CD1A06801F010
:104C600091FE80460020A06025E07DB93946226C87
:104C70006068FBF7D8FB216C606808446060D4E989
:104C80000101884217D32068606014E03946226C25
:104C9000E068FBF7C8FB216CE068411AE16021681D
:104CA000E068884203D2216CA068411AE160022DBD
:104CB00001D106B1761E701CA0634046BDE8F081AC
:104CC00010B5044694F8590030B9206B00F074FD1B
:104CD000204600F071FD1AE094F85900012803D134
:104CE000204600F069FD12E094F85900022801D135
:104CF000012000E0002050B900BF502080F311884F
:104D0000BFF34F8FBFF36F8F00BF00BFFEE710BD33
:104D100001464A6A22B10A6B1268C2F1380000E00B
:104D2000002070470146084A126812680AB9012239
:104D300000E000220A600A6822B9034A1268D268B9
:104D4000106800E0002070474C00002030B54FF4A0
:104D50007053174800F007042CB1C01D20F0070065
:104D6000134C041B1B1B0246124C22600024114DE5
:104D70006C60D018083820F007000F4C2060002429
:104D80000D4D2D686C600C4D2D682C601146441A39
:104D90004C60094C24680C60084D4C682C60084D30
:104DA0004C682C604FF00044064D2C6030BD000074
:104DB00008160020640000206C0000207400002011
:104DC000700000208000002000BFFFF701FF0648B0
:104DD00000680128F9D94FF0805004490860BFF3FA
:104DE0004F8FBFF36F8FF0E7F402002004ED00E077
:104DF0002DE9F04106460D4617469846069C0DB92A
:104E0000246000E02760E66325640121204601F06C
:104E10008DF884F84C80BDE8F0812DE9F05F824682
:104E20000E4690469B460A9F0C9C4FEA8801A5229D
:104E3000206BFBF73DFBA8F10100216B01EB800922
:104E400029F0070909F0070008B9012000E0002057
:104E500050B900BF502080F31188BFF34F8FBFF3CC
:104E60006F8F00BF00BFFEE786B1002507E0715DD0
:104E700004F134004155705D00B902E06D1C102D45
:104E8000F5D300BF00214320015502E0002084F843
:104E90003400382F00D33727E762E764002020650D
:104EA000201D00F018FC04F1180000F014FC24612F
:104EB000C7F13800A06164620020606584F8580082
:104EC0005A465146484600F0B3FB20600B9808B1A3
:104ED0000B980460BDE8F09F2DE9F04706460D46AB
:104EE00017469846DDE908940DB1012000E0002046
:104EF00050B900BF502080F31188BFF34F8FBFF32C
:104F00006F8F00BF00BFFEE78CB1FFF727FE266062
:104F1000A561C4F81C80C4F82090201D00F0DBFBC4
:104F20002FB194F8280040F0040084F82800BDE870
:104F3000F087000010B5002407E004EB84010F4A5D
:104F400002EB810000F0BAFB641C382CF5D30C484E
:104F500000F0B4FB0B4800F0B1FB0B4800F0AEFBD7
:104F60000A4800F0ABFB0A4800F0A8FB04480949D6
:104F7000086004480849086010BD0000F4020020E1
:104F800054070020680700207C07002090070020BD
:104F9000A4070020140000201800002010B50146CE
:104FA000164800E0006803688B42FBD30246436862
:104FB00013448B4204D143684C6823444360014648
:104FC0000A464B6813440468A34211D10C4C036891
:104FD0002468A34208D04B680468646823444B608B
:104FE00003681B680B6005E0054B1B680B6001E064
:104FF00003680B60884200D0016010BD640000208F
:105000006C0000202DE9F04104460D4616461F466F
:105010004FF0000865602461B5420CD8F01BA1690F
:10502000884202D34FF0010811E0211D09480068B1
:1050300000F054FB0BE0BE4204D2BD4202D34FF05D
:10504000010804E0211D0448006800F047FB4046C9
:10505000BDE8F081500000204C00002070B50546EE
:1050600000F062FBA86B08B9012400E0002400F006
:1050700085FB204670BD70B5054600F055FBA86B5A
:10508000E96B884201D1012400E0002400F076FBA6
:10509000204670BDF8B505460F461A480068C0683E
:1050A000C468201D00F0DAFA94F8280000F004002B
:1050B000E8B1A06941192B463A462046FFF7A2FF06
:1050C000D8B1002003462A4601460090204601F050
:1050D00023FE064656B900BF502080F31188BFF367
:1050E0004F8FBFF36F8F00BF00BFFEE705E094F85E
:1050F000280020F0010084F828002046216A884713
:10510000F8BD00004C000020F0B587B0A0E0039887
:10511000002811DA04AE56B900BF502080F3118880
:10512000BFF34F8FBFF36F8F00BF00BFFEE7D6E91D
:105130000020B168904700BF03980028E6DB059C7B
:10514000606908B9012000E0002010B9201D00F0BE
:1051500085FA02A800F0DEF8054603980A2875D201
:10516000DFE800F009050739416306083A4200BF4D
:1051700000BF00BF00BF94F8280040F0010084F891
:1051800028000498A269811803462A462046FFF7A2
:1051900039FFF8B12046216A884794F8280000F0CA
:1051A0000400B8B1002000900498A16942180023BF
:1051B0001946204601F0B0FD074657B900BF502000
:1051C00080F31188BFF34F8FBFF36F8F00BF00BF15
:1051D000FEE700BF3BE000BF94F8280020F001008C
:1051E00084F8280033E000BF94F8280040F0010064
:1051F00084F828000498A061A06908B1012000E0AB
:10520000002050B900BF502080F31188BFF34F8FAA
:10521000BFF36F8F00BF00BFFEE7A06941192B46A7
:105220002A462046FFF7EEFE11E094F8280000F031
:10523000020018B9204600F0BFFA05E094F82800F3
:1052400020F0010084F8280001E0FFE700BF00BF64
:10525000002203A90448006801F076F800287FF4D2
:1052600056AF07B0F0BD000054000020F8B5054669
:105270000C4600F091FC684600F04CF80646009899
:1052800020BB44B9B54206D801F06CFC3146284633
:10529000FFF700FF1CE03CB10E480068006808B949
:1052A000012000E000200446A91B22460A480068AD
:1052B00000F03AFB01F056FC50B94FF0805007491E
:1052C0000860BFF34F8FBFF36F8F01E001F04AFC1E
:1052D000F8BD0000500000205400002004ED00E064
:1052E0000A490968096809B9012100E0002121B1D2
:1052F0004FF0FF31064A116006E004490968C968A9
:10530000C868034A4168116070470000140000201B
:105310004000002070B5044601F08CFA05460748AD
:105320000068854204D200F00BF80120206001E003
:105330000020206001480560284670BD5C00002008
:105340002DE9F84334E025480068C0680568234823
:105350000068C068C468201D00F080F92046216AFA
:10536000884794F8280000F0040008B3A0694619A3
:10537000AE4207D966602461211D1848006800F01C
:10538000ADF915E0002003462A460146009020466C
:1053900001F0C2FC074657B900BF502080F31188C6
:1053A000BFF34F8FBFF36F8F00BF00BFFEE700BF9B
:1053B0000A480068006808B9012000E000200028C1
:1053C000C1D00648D0F8008005480068034908604D
:1053D0000348C0F80080BDE8F88300004C000020BE
:1053E000500000200E480068401C08B9012000E071
:1053F000002050B900BF502080F31188BFF34F8FB9
:10540000BFF36F8F00BF00BFFEE700BF502080F3E7
:105410001188BFF34F8FBFF36F8F00BF00BFFEE750
:105420008400002008B500BF6846FFF77BFC0446F7
:1054300020460099FFF71AFFFFF766FEF4E770B504
:10544000044600F071F994F9455010E0606A08B91B
:10545000012000E0002038B904F1240001F036FBFF
:1054600018B100F093FA00E003E0681E45B2002D89
:10547000ECDC00BFFF2084F8450000F07FF900F06D
:1054800053F994F9445010E0206908B9012000E074
:10549000002048B904F1100001F018FB08B100F039
:1054A00075FA681E45B200E001E0002DECDC00BF9B
:1054B000FF2084F8440000F061F970BD2DE9F0414F
:1054C00004464FF0000800F067FB4B48006808B93D
:1054D000FFF73CFC494800682040002870D1D4B157
:1054E000083404F00700B0B104F00700C0F1080070
:1054F000044404F0070008B9012000E0002050B97E
:1055000000BF502080F31188BFF34F8FBFF36F8F20
:1055100000BF00BFFEE7002C52D03948006884422B
:105520004ED8384E3046056801E02E462D68686832
:10553000A04202D228680028F7D12F48006885428F
:105540003ED0306800F10808286830606868001BA9
:10555000102819D92F1907F0070008B9012000E019
:10556000002050B900BF502080F31188BFF34F8F47
:10557000BFF36F8F00BF00BFFEE76868001B786055
:105580006C603846FFF70AFD1D4968680968081A0B
:105590001B490860084600681B490968884203D215
:1055A0001748006818490860144968680968084382
:1055B00068600020286015480068401C1349086096
:1055C00001F0D0FAB8F1000F01D100F073F808F043
:1055D000070008B9012000E0002050B900BF5020AA
:1055E00080F31188BFF34F8FBFF36F8F00BF00BFF1
:1055F000FEE74046BDE8F0816C00002080000020FE
:10560000700000206400002074000020780000205A
:105610000648006830B10549096801F15000096D7C
:10562000491C01600148006870470000100000201C
:10563000001F4FF080730360001F21F0010303601F
:10564000001F054B036014380260001F6FF0020357
:105650000360203870470000E553000801460A69DE
:10566000D1E901309860D1E901035860506888425F
:1056700001D188685060002008611068401E1060E9
:1056800010687047034B0360034B0B604FF4FA73D1
:1056900013607047D00800202C090020034B0360E2
:1056A000034B0B604FF4967313607047FC1000209F
:1056B0005811002000BFFEE700BFFEE700F108011F
:1056C00041604FF0FF31816000F10801C16001616C
:1056D00000210160704700210161704710B502464A
:1056E0000B685C1C0CB9106907E002F1080000E0CF
:1056F0004068446824689C42FAD944684C604C680D
:10570000A160886041600A611468641C146010BD67
:1057100042684A6093688B60936859609160086141
:1057200003685B1C0360704700BF502080F3118842
:10573000BFF34F8FBFF36F8F00BF0E480068401C50
:105740000C49086008460068012812D10A48006820
:10575000C0B208B9012000E0002050B900BF5020BD
:1057600080F31188BFF34F8FBFF36F8F00BF00BF6F
:10577000FEE770478400002004ED00E00D4800685B
:1057800050B900BF502080F31188BFF34F8FBFF393
:105790006F8F00BF00BFFEE706480068401E054946
:1057A00008600846006820B9002080F3118800BF17
:1057B00000BF70478400002070B506463546002EB5
:1057C00044D0083D2C46224960680968084008B169
:1057D000012000E0002050B900BF502080F3118864
:1057E000BFF34F8FBFF36F8F00BF00BFFEE720688E
:1057F00008B9012000E0002050B900BF502080F31C
:105800001188BFF34F8FBFF36F8F00BF00BFFEE75C
:105810000F49606809680840C0B12068B0B90C49F8
:10582000606809688843606000F0B6F909496068FB
:1058300009680844074908602046FFF7AFFB06489F
:105840000068401C0449086001F08CF970BD00003C
:1058500080000020700000207C00002000204FF01D
:10586000E02108618861064800684FF47A71B0FB56
:10587000F1F0401E4FF0E0214861072008617047B9
:105880000C00002070B5FAF733FD0446102C16D337
:1058900004F1E02090F8F05315480078854201DBD0
:1058A000012000E0002050B900BF502080F3118893
:1058B000BFF34F8FBFF36F8F00BF00BFFEE70D48F0
:1058C000006800F4E0600C490968884201D80120B2
:1058D00000E0002050B900BF502080F31188BFF3D2
:1058E0004F8FBFF36F8F00BF00BFFEE770BD00009A
:1058F000880000200CED00E08C0000200246002013
:105900000BE0084B53F8303033B9064B43F83010F6
:1059100003EBC0035A6002E0401C0828F1D300BF2B
:1059200070470000B40200202DE9F04105460E4604
:1059300017462C46FFF7F8FE94F94400401C10B9B6
:10594000002084F8440094F94500401C10B9002060
:1059500084F84500FFF712FFA06B28B93A4631469C
:1059600004F1240000F034F82046FFF768FDBDE89C
:10597000F08100000349096801600349096841603A
:105980007047000038000020240000200120014959
:10599000086070473400002070B504460D4654B9C5
:1059A00000BF502080F31188BFF34F8FBFF36F8F7C
:1059B00000BF00BFFEE70548016818312046FFF729
:1059C0008DFE01212846FFF72FF870BD1000002042
:1059D00070B505460E46144655B900BF502080F3F9
:1059E0001188BFF34F8FBFF36F8F00BF00BFFEE77B
:1059F0000648016818312846FFF78AFE0CB14FF0BF
:105A0000FF3621463046FFF70FF870BD100000202A
:105A10002DE9F04706460F4634464FF00109002EA7
:105A200055D0206D50B900BF502080F31188BFF3CE
:105A30004F8FBFF36F8F00BF00BFFEE7E06CB8422F
:105A400001D23D4600E0E56CE06AA8423FD0206DFF
:105A500001283CD11F480068844201D0012000E0A9
:105A6000002050B900BF502080F31188BFF34F8F42
:105A7000BFF36F8F00BF00BFFEE7D4F82C80E56254
:105A8000A06900F0004010B9C5F13800A06108EB32
:105A90008801114A02EB81016069884201D101202D
:105AA00000E0002098B1201DFFF7D8FD0B49E06A07
:105AB0000968884202D90949E06A0860E16A01EB95
:105AC0008101054A02EB8100211DFFF721FEBDE89F
:105AD000F087000010000020F402002028000020C1
